{
  "address": "0xc761C5f5F103672C096aA945706050f2fd3943E6",
  "abi": [
    {
      "inputs": [
        {
          "internalType": "address",
          "name": "target",
          "type": "address"
        }
      ],
      "name": "AddressEmptyCode",
      "type": "error"
    },
    {
      "inputs": [
        {
          "internalType": "address",
          "name": "account",
          "type": "address"
        }
      ],
      "name": "AddressInsufficientBalance",
      "type": "error"
    },
    {
      "inputs": [],
      "name": "FailedInnerCall",
      "type": "error"
    },
    {
      "inputs": [
        {
          "internalType": "address",
          "name": "token",
          "type": "address"
        }
      ],
      "name": "SafeERC20FailedOperation",
      "type": "error"
    },
    {
      "anonymous": false,
      "inputs": [
        {
          "indexed": true,
          "internalType": "address",
          "name": "from",
          "type": "address"
        },
        {
          "indexed": true,
          "internalType": "address",
          "name": "recipient",
          "type": "address"
        },
        {
          "indexed": false,
          "internalType": "uint256",
          "name": "amount",
          "type": "uint256"
        },
        {
          "indexed": false,
          "internalType": "address",
          "name": "token",
          "type": "address"
        },
        {
          "indexed": false,
          "internalType": "bytes",
          "name": "data",
          "type": "bytes"
        }
      ],
      "name": "Allocate",
      "type": "event"
    },
    {
      "anonymous": false,
      "inputs": [
        {
          "indexed": true,
          "internalType": "address",
          "name": "from",
          "type": "address"
        },
        {
          "indexed": true,
          "internalType": "address",
          "name": "recipient",
          "type": "address"
        },
        {
          "indexed": false,
          "internalType": "uint256",
          "name": "amount",
          "type": "uint256"
        },
        {
          "indexed": false,
          "internalType": "address",
          "name": "token",
          "type": "address"
        },
        {
          "indexed": false,
          "internalType": "bytes",
          "name": "data",
          "type": "bytes"
        }
      ],
      "name": "Withdraw",
      "type": "event"
    },
    {
      "inputs": [
        {
          "internalType": "address[]",
          "name": "recipients",
          "type": "address[]"
        },
        {
          "internalType": "uint256[]",
          "name": "amounts",
          "type": "uint256[]"
        },
        {
          "internalType": "address",
          "name": "token",
          "type": "address"
        },
        {
          "internalType": "bytes[]",
          "name": "data",
          "type": "bytes[]"
        }
      ],
      "name": "allocate",
      "outputs": [],
      "stateMutability": "nonpayable",
      "type": "function"
    },
    {
      "inputs": [
        {
          "internalType": "address[]",
          "name": "recipients",
          "type": "address[]"
        },
        {
          "internalType": "uint256[]",
          "name": "amounts",
          "type": "uint256[]"
        },
        {
          "internalType": "address",
          "name": "token",
          "type": "address"
        },
        {
          "internalType": "bytes[]",
          "name": "data",
          "type": "bytes[]"
        }
      ],
      "name": "withdraw",
      "outputs": [],
      "stateMutability": "nonpayable",
      "type": "function"
    }
  ],
  "transactionHash": "0xcac86f596cc7b9f2349a93ae0543be36e6f7b36fddf6eeb60469905e4c41d278",
  "args": [],
  "numDeployments": 1,
  "solcInputHash": "0d24bce8f60d336dd45bbb954f5919e8",
  "bytecode": "0x608060405234801561001057600080fd5b506108a7806100206000396000f3fe608060405234801561001057600080fd5b50600436106100365760003560e01c80635b801bd51461003b578063eede8aea14610050575b600080fd5b61004e610049366004610694565b610063565b005b61004e61005e366004610694565b610077565b610071848484846000610081565b50505050565b6100718484848460015b845180158015906100925750845181145b6100d85760405162461bcd60e51b81526020600482015260126024820152714d69736d617463686564206c656e6774687360701b60448201526064015b60405180910390fd5b60005b818110156101b957600084518210610102576040518060200160405280600081525061011d565b84828151811061011457610114610789565b60200260200101515b905083156101685761016388838151811061013a5761013a610789565b602002602001015188848151811061015457610154610789565b602002602001015188846101c2565b6101a6565b6101a688838151811061017d5761017d610789565b602002602001015188848151811061019757610197610789565b6020026020010151888461022c565b50806101b18161079f565b9150506100db565b50505050505050565b6101d76001600160a01b038316338686610287565b6001600160a01b038416336001600160a01b03167f68179208818f375bd941a067e321c35e8cebc048007cd126acd94625989a7b7585858560405161021e939291906107ea565b60405180910390a350505050565b6102406001600160a01b03831685856102ee565b6001600160a01b038416336001600160a01b03167faf67240147df62f17dfebf3c68b2c54103857abfb47bb0d97064b48d490423d685858560405161021e939291906107ea565b6040516001600160a01b0384811660248301528381166044830152606482018390526100719186918216906323b872dd906084015b604051602081830303815290604052915060e01b6020820180516001600160e01b038381831617835250505050610324565b6040516001600160a01b0383811660248301526044820183905261031f91859182169063a9059cbb906064016102bc565b505050565b60006103396001600160a01b03841683610387565b9050805160001415801561035e57508080602001905181019061035c9190610833565b155b1561031f57604051635274afe760e01b81526001600160a01b03841660048201526024016100cf565b60606103958383600061039c565b9392505050565b6060814710156103c15760405163cd78605960e01b81523060048201526024016100cf565b600080856001600160a01b031684866040516103dd9190610855565b60006040518083038185875af1925050503d806000811461041a576040519150601f19603f3d011682016040523d82523d6000602084013e61041f565b606091505b509150915061042f868383610439565b9695505050505050565b60608261044e5761044982610495565b610395565b815115801561046557506001600160a01b0384163b155b1561048e57604051639996b31560e01b81526001600160a01b03851660048201526024016100cf565b5080610395565b8051156104a55780518082602001fd5b604051630a12f52160e11b815260040160405180910390fd5b634e487b7160e01b600052604160045260246000fd5b604051601f8201601f1916810167ffffffffffffffff811182821017156104fd576104fd6104be565b604052919050565b600067ffffffffffffffff82111561051f5761051f6104be565b5060051b60200190565b80356001600160a01b038116811461054057600080fd5b919050565b600082601f83011261055657600080fd5b8135602061056b61056683610505565b6104d4565b82815260059290921b8401810191818101908684111561058a57600080fd5b8286015b848110156105a5578035835291830191830161058e565b509695505050505050565b6000601f83818401126105c257600080fd5b823560206105d261056683610505565b82815260059290921b850181019181810190878411156105f157600080fd5b8287015b8481101561068857803567ffffffffffffffff808211156106165760008081fd5b818a0191508a603f83011261062b5760008081fd5b85820135604082821115610641576106416104be565b610652828b01601f191689016104d4565b92508183528c818386010111156106695760008081fd5b81818501898501375060009082018701528452509183019183016105f5565b50979650505050505050565b600080600080608085870312156106aa57600080fd5b843567ffffffffffffffff808211156106c257600080fd5b818701915087601f8301126106d657600080fd5b813560206106e661056683610505565b82815260059290921b8401810191818101908b84111561070557600080fd5b948201945b8386101561072a5761071b86610529565b8252948201949082019061070a565b9850508801359250508082111561074057600080fd5b61074c88838901610545565b945061075a60408801610529565b9350606087013591508082111561077057600080fd5b5061077d878288016105b0565b91505092959194509250565b634e487b7160e01b600052603260045260246000fd5b6000600182016107bf57634e487b7160e01b600052601160045260246000fd5b5060010190565b60005b838110156107e15781810151838201526020016107c9565b50506000910152565b83815260018060a01b0383166020820152606060408201526000825180606084015261081d8160808501602087016107c6565b601f01601f191691909101608001949350505050565b60006020828403121561084557600080fd5b8151801515811461039557600080fd5b600082516108678184602087016107c6565b919091019291505056fea2646970667358221220f612ae4935be1a0a22a8e561b34ca7908db3414db8c33b1a9cf36091702a98a664736f6c63430008140033",
  "devdoc": {
    "errors": {
      "AddressEmptyCode(address)": [
        {
          "details": "There's no code at `target` (it is not a contract)."
        }
      ],
      "AddressInsufficientBalance(address)": [
        {
          "details": "The ETH balance of the account is not enough to perform the operation."
        }
      ],
      "FailedInnerCall()": [
        {
          "details": "A call to an address target failed. The target may have reverted."
        }
      ],
      "SafeERC20FailedOperation(address)": [
        {
          "details": "An operation with an ERC20 token failed."
        }
      ]
    },
    "kind": "dev",
    "methods": {},
    "version": 1
  },
  "userdoc": {
    "kind": "user",
    "methods": {},
    "version": 1
  },
  "storageLayout": {
    "storage": [],
    "types": null
  }
}