{
  "address": "0xe7e9B09CbcF6542263678FE682a710d57A8C4c1A",
  "abi": [
    {
      "anonymous": false,
      "inputs": [
        {
          "indexed": true,
          "internalType": "address",
          "name": "project",
          "type": "address"
        },
        {
          "indexed": false,
          "internalType": "string",
          "name": "metadataURI",
          "type": "string"
        },
        {
          "indexed": false,
          "internalType": "bytes",
          "name": "data",
          "type": "bytes"
        }
      ],
      "name": "Approve",
      "type": "event"
    },
    {
      "anonymous": false,
      "inputs": [
        {
          "indexed": true,
          "internalType": "address",
          "name": "project",
          "type": "address"
        },
        {
          "indexed": false,
          "internalType": "string",
          "name": "metadataURI",
          "type": "string"
        },
        {
          "indexed": false,
          "internalType": "bytes",
          "name": "data",
          "type": "bytes"
        }
      ],
      "name": "Register",
      "type": "event"
    },
    {
      "inputs": [
        {
          "internalType": "address",
          "name": "project",
          "type": "address"
        },
        {
          "internalType": "string",
          "name": "metadataURI",
          "type": "string"
        },
        {
          "internalType": "bytes",
          "name": "data",
          "type": "bytes"
        }
      ],
      "name": "approve",
      "outputs": [],
      "stateMutability": "nonpayable",
      "type": "function"
    },
    {
      "inputs": [
        {
          "internalType": "address",
          "name": "",
          "type": "address"
        }
      ],
      "name": "projects",
      "outputs": [
        {
          "internalType": "uint8",
          "name": "",
          "type": "uint8"
        }
      ],
      "stateMutability": "view",
      "type": "function"
    },
    {
      "inputs": [
        {
          "internalType": "address",
          "name": "project",
          "type": "address"
        },
        {
          "internalType": "string",
          "name": "metadataURI",
          "type": "string"
        },
        {
          "internalType": "bytes",
          "name": "data",
          "type": "bytes"
        }
      ],
      "name": "register",
      "outputs": [],
      "stateMutability": "nonpayable",
      "type": "function"
    }
  ],
  "transactionHash": "0xb85431990eafbdf096200e40a5162f684959d36c644787d75a55eec1c42624fb",
  "args": [],
  "numDeployments": 1,
  "solcInputHash": "8daad3d39b616fe810dd4d6b95bf7d2d",
  "bytecode": "0x608060405234801561001057600080fd5b5061047c806100206000396000f3fe608060405234801561001057600080fd5b50600436106100415760003560e01c80630d17579a14610046578063580867751461005b578063840e78fd1461006e575b600080fd5b610059610054366004610311565b6100a7565b005b610059610069366004610311565b61013e565b61009161007c3660046103b0565b60006020819052908152604090205460ff1681565b60405160ff909116815260200160405180910390f35b6001600160a01b03831660009081526020819052604090205460ff1660011461012e5760405162461bcd60e51b815260206004820152602e60248201527f50726f6a65637420616c726561647920617070726f766564206f72206e6f742060448201526d1c9959da5cdd195c9959081e595d60921b60648201526084015b60405180910390fd5b610139838383610149565b505050565b6101398383836101ab565b6001600160a01b03831660008181526020819052604090819020805460ff19166002179055517fcb200060734864b40e11aa8a4165ce2c5842464e76b346d19e3dd39ab8bd01989061019e9085908590610418565b60405180910390a2505050565b6001600160a01b03831660009081526020819052604090205460ff16156102145760405162461bcd60e51b815260206004820152601a60248201527f50726f6a65637420616c726561647920726567697374657265640000000000006044820152606401610125565b6001600160a01b03831660008181526020819052604090819020805460ff19166001179055517fc5269720f30ff538a6b4829011111214de2ce17b1ccce376b5c754133dacd2659061019e9085908590610418565b80356001600160a01b038116811461028057600080fd5b919050565b634e487b7160e01b600052604160045260246000fd5b600067ffffffffffffffff808411156102b6576102b6610285565b604051601f8501601f19908116603f011681019082821181831017156102de576102de610285565b816040528093508581528686860111156102f757600080fd5b858560208301376000602087830101525050509392505050565b60008060006060848603121561032657600080fd5b61032f84610269565b9250602084013567ffffffffffffffff8082111561034c57600080fd5b818601915086601f83011261036057600080fd5b61036f8783356020850161029b565b9350604086013591508082111561038557600080fd5b508401601f8101861361039757600080fd5b6103a68682356020840161029b565b9150509250925092565b6000602082840312156103c257600080fd5b6103cb82610269565b9392505050565b6000815180845260005b818110156103f8576020818501810151868301820152016103dc565b506000602082860101526020601f19601f83011685010191505092915050565b60408152600061042b60408301856103d2565b828103602084015261043d81856103d2565b9594505050505056fea264697066735822122071268338c017a62b4e59eb815a73680683da0a4decbc46a107d3883e729c075d64736f6c63430008140033",
  "devdoc": {
    "kind": "dev",
    "methods": {},
    "version": 1
  },
  "userdoc": {
    "kind": "user",
    "methods": {},
    "version": 1
  },
  "storageLayout": {
    "storage": [
      {
        "astId": 2048,
        "contract": "contracts/extensions/Registry.sol:Registry",
        "label": "projects",
        "offset": 0,
        "slot": "0",
        "type": "t_mapping(t_address,t_uint8)"
      }
    ],
    "types": {
      "t_address": {
        "encoding": "inplace",
        "label": "address",
        "numberOfBytes": "20"
      },
      "t_mapping(t_address,t_uint8)": {
        "encoding": "mapping",
        "key": "t_address",
        "label": "mapping(address => uint8)",
        "numberOfBytes": "32",
        "value": "t_uint8"
      },
      "t_uint8": {
        "encoding": "inplace",
        "label": "uint8",
        "numberOfBytes": "1"
      }
    }
  }
}