{
  "address": "0x4261fadd4f881f9411eeacfd8d4004d0f76962bc",
  "abi": [
    {
      "inputs": [
        {
          "internalType": "address",
          "name": "owner",
          "type": "address"
        }
      ],
      "stateMutability": "nonpayable",
      "type": "constructor"
    },
    {
      "inputs": [
        {
          "internalType": "address",
          "name": "target",
          "type": "address"
        }
      ],
      "name": "AddressEmptyCode",
      "type": "error"
    },
    {
      "inputs": [
        {
          "internalType": "address",
          "name": "account",
          "type": "address"
        }
      ],
      "name": "AddressInsufficientBalance",
      "type": "error"
    },
    {
      "inputs": [],
      "name": "FailedInnerCall",
      "type": "error"
    },
    {
      "inputs": [
        {
          "internalType": "address",
          "name": "owner",
          "type": "address"
        }
      ],
      "name": "OwnableInvalidOwner",
      "type": "error"
    },
    {
      "inputs": [
        {
          "internalType": "address",
          "name": "account",
          "type": "address"
        }
      ],
      "name": "OwnableUnauthorizedAccount",
      "type": "error"
    },
    {
      "inputs": [
        {
          "internalType": "address",
          "name": "token",
          "type": "address"
        }
      ],
      "name": "SafeERC20FailedOperation",
      "type": "error"
    },
    {
      "anonymous": false,
      "inputs": [
        {
          "indexed": true,
          "internalType": "address",
          "name": "from",
          "type": "address"
        },
        {
          "indexed": true,
          "internalType": "address",
          "name": "recipient",
          "type": "address"
        },
        {
          "indexed": false,
          "internalType": "uint256",
          "name": "amount",
          "type": "uint256"
        },
        {
          "indexed": false,
          "internalType": "address",
          "name": "token",
          "type": "address"
        },
        {
          "indexed": false,
          "internalType": "bytes",
          "name": "data",
          "type": "bytes"
        }
      ],
      "name": "Allocate",
      "type": "event"
    },
    {
      "anonymous": false,
      "inputs": [
        {
          "indexed": true,
          "internalType": "address",
          "name": "project",
          "type": "address"
        },
        {
          "indexed": false,
          "internalType": "string",
          "name": "metadataURI",
          "type": "string"
        },
        {
          "indexed": false,
          "internalType": "bytes",
          "name": "data",
          "type": "bytes"
        }
      ],
      "name": "Approve",
      "type": "event"
    },
    {
      "anonymous": false,
      "inputs": [
        {
          "indexed": false,
          "internalType": "string",
          "name": "strategyName",
          "type": "string"
        }
      ],
      "name": "Initialize",
      "type": "event"
    },
    {
      "anonymous": false,
      "inputs": [
        {
          "indexed": true,
          "internalType": "address",
          "name": "previousOwner",
          "type": "address"
        },
        {
          "indexed": true,
          "internalType": "address",
          "name": "newOwner",
          "type": "address"
        }
      ],
      "name": "OwnershipTransferred",
      "type": "event"
    },
    {
      "anonymous": false,
      "inputs": [
        {
          "indexed": true,
          "internalType": "address",
          "name": "project",
          "type": "address"
        },
        {
          "indexed": false,
          "internalType": "string",
          "name": "metadataURI",
          "type": "string"
        },
        {
          "indexed": false,
          "internalType": "bytes",
          "name": "data",
          "type": "bytes"
        }
      ],
      "name": "Register",
      "type": "event"
    },
    {
      "anonymous": false,
      "inputs": [
        {
          "indexed": true,
          "internalType": "address",
          "name": "from",
          "type": "address"
        },
        {
          "indexed": true,
          "internalType": "address",
          "name": "recipient",
          "type": "address"
        },
        {
          "indexed": false,
          "internalType": "uint256",
          "name": "amount",
          "type": "uint256"
        },
        {
          "indexed": false,
          "internalType": "address",
          "name": "token",
          "type": "address"
        },
        {
          "indexed": false,
          "internalType": "bytes",
          "name": "data",
          "type": "bytes"
        }
      ],
      "name": "Withdraw",
      "type": "event"
    },
    {
      "inputs": [
        {
          "internalType": "address[]",
          "name": "recipients",
          "type": "address[]"
        },
        {
          "internalType": "uint256[]",
          "name": "amounts",
          "type": "uint256[]"
        },
        {
          "internalType": "address",
          "name": "token",
          "type": "address"
        },
        {
          "internalType": "bytes[]",
          "name": "data",
          "type": "bytes[]"
        }
      ],
      "name": "allocate",
      "outputs": [],
      "stateMutability": "nonpayable",
      "type": "function"
    },
    {
      "inputs": [
        {
          "internalType": "address",
          "name": "project",
          "type": "address"
        },
        {
          "internalType": "string",
          "name": "metadataURI",
          "type": "string"
        },
        {
          "internalType": "bytes",
          "name": "data",
          "type": "bytes"
        }
      ],
      "name": "approve",
      "outputs": [],
      "stateMutability": "nonpayable",
      "type": "function"
    },
    {
      "inputs": [],
      "name": "owner",
      "outputs": [
        {
          "internalType": "address",
          "name": "",
          "type": "address"
        }
      ],
      "stateMutability": "view",
      "type": "function"
    },
    {
      "inputs": [
        {
          "internalType": "address",
          "name": "",
          "type": "address"
        }
      ],
      "name": "projects",
      "outputs": [
        {
          "internalType": "uint8",
          "name": "",
          "type": "uint8"
        }
      ],
      "stateMutability": "view",
      "type": "function"
    },
    {
      "inputs": [
        {
          "internalType": "address",
          "name": "project",
          "type": "address"
        },
        {
          "internalType": "string",
          "name": "metadataURI",
          "type": "string"
        },
        {
          "internalType": "bytes",
          "name": "data",
          "type": "bytes"
        }
      ],
      "name": "register",
      "outputs": [],
      "stateMutability": "nonpayable",
      "type": "function"
    },
    {
      "inputs": [],
      "name": "renounceOwnership",
      "outputs": [],
      "stateMutability": "nonpayable",
      "type": "function"
    },
    {
      "inputs": [],
      "name": "strategyName",
      "outputs": [
        {
          "internalType": "string",
          "name": "",
          "type": "string"
        }
      ],
      "stateMutability": "view",
      "type": "function"
    },
    {
      "inputs": [
        {
          "internalType": "address",
          "name": "newOwner",
          "type": "address"
        }
      ],
      "name": "transferOwnership",
      "outputs": [],
      "stateMutability": "nonpayable",
      "type": "function"
    },
    {
      "inputs": [
        {
          "internalType": "address[]",
          "name": "recipients",
          "type": "address[]"
        },
        {
          "internalType": "uint256[]",
          "name": "amounts",
          "type": "uint256[]"
        },
        {
          "internalType": "address",
          "name": "token",
          "type": "address"
        },
        {
          "internalType": "bytes[]",
          "name": "data",
          "type": "bytes[]"
        }
      ],
      "name": "withdraw",
      "outputs": [],
      "stateMutability": "nonpayable",
      "type": "function"
    },
    {
      "stateMutability": "payable",
      "type": "receive"
    }
  ],
  "transactionHash": "0xf4596ea948e151287e92df96f15205cb6902db678d8ba8dfe1aab3f7fe6225a0",
  "args": [
    "0x8595e36857743A1C517e00179e6bA6D170DD1F51"
  ],
  "numDeployments": 1,
  "solcInputHash": "f2fc99cfc64e5adbfaf87e3e9a18c051",
  "bytecode": "0x60806040523480156200001157600080fd5b506040516200122838038062001228833981016040819052620000349162000137565b60408051808201909152600c81526b53696d706c654772616e747360a01b6020820152819060006200006782826200020e565b507f65b338e03a4156bd65a273672217a9d2d0e0594ee4f689f7a4be8ab5e91fd30160006040516200009a9190620002da565b60405180910390a1506001600160a01b038116620000d257604051631e4fbdf760e01b81526000600482015260240160405180910390fd5b620000dd81620000e5565b50506200036d565b600280546001600160a01b038381166001600160a01b0319831681179093556040519116919082907f8be0079c531659141344cd1fd0a4f28419497f9722a3daafe3b4186f6b6457e090600090a35050565b6000602082840312156200014a57600080fd5b81516001600160a01b03811681146200016257600080fd5b9392505050565b634e487b7160e01b600052604160045260246000fd5b600181811c908216806200019457607f821691505b602082108103620001b557634e487b7160e01b600052602260045260246000fd5b50919050565b601f8211156200020957600081815260208120601f850160051c81016020861015620001e45750805b601f850160051c820191505b818110156200020557828155600101620001f0565b5050505b505050565b81516001600160401b038111156200022a576200022a62000169565b62000242816200023b84546200017f565b84620001bb565b602080601f8311600181146200027a5760008415620002615750858301515b600019600386901b1c1916600185901b17855562000205565b600085815260208120601f198616915b82811015620002ab578886015182559484019460019091019084016200028a565b5085821015620002ca5787850151600019600388901b60f8161c191681555b5050505050600190811b01905550565b6000602080835260008454620002f0816200017f565b808487015260406001808416600081146200031457600181146200032f576200035f565b60ff1985168984015283151560051b8901830195506200035f565b896000528660002060005b85811015620003575781548b82018601529083019088016200033a565b8a0184019650505b509398975050505050505050565b610eab806200037d6000396000f3fe60806040526004361061008a5760003560e01c8063840e78fd11610059578063840e78fd1461010d5780638da5cb5b14610154578063e173ad251461017c578063eede8aea1461019e578063f2fde38b146101be57600080fd5b80630d17579a1461009657806358086775146100b85780635b801bd5146100d8578063715018a6146100f857600080fd5b3661009157005b600080fd5b3480156100a257600080fd5b506100b66100b1366004610a5b565b6101de565b005b3480156100c457600080fd5b506100b66100d3366004610a5b565b610276565b3480156100e457600080fd5b506100b66100f3366004610bf5565b6102aa565b34801561010457600080fd5b506100b66102be565b34801561011957600080fd5b5061013d610128366004610cea565b60016020526000908152604090205460ff1681565b60405160ff90911681526020015b60405180910390f35b34801561016057600080fd5b506002546040516001600160a01b03909116815260200161014b565b34801561018857600080fd5b506101916102d2565b60405161014b9190610d55565b3480156101aa57600080fd5b506100b66101b9366004610bf5565b610360565b3480156101ca57600080fd5b506100b66101d9366004610cea565b61036e565b6001600160a01b03831660009081526001602081905260409091205460ff16146102665760405162461bcd60e51b815260206004820152602e60248201527f50726f6a65637420616c726561647920617070726f766564206f72206e6f742060448201526d1c9959da5cdd195c9959081e595d60921b60648201526084015b60405180910390fd5b6102718383836103ac565b505050565b61028183838361040e565b6102718360405180602001604052806000815250604051806020016040528060008152506103ac565b6102b88484848460006104ce565b50505050565b6102c661060a565b6102d06000610637565b565b600080546102df90610d68565b80601f016020809104026020016040519081016040528092919081815260200182805461030b90610d68565b80156103585780601f1061032d57610100808354040283529160200191610358565b820191906000526020600020905b81548152906001019060200180831161033b57829003601f168201915b505050505081565b6102b88484848460016104ce565b61037661060a565b6001600160a01b0381166103a057604051631e4fbdf760e01b81526000600482015260240161025d565b6103a981610637565b50565b6001600160a01b03831660008181526001602052604090819020805460ff19166002179055517fcb200060734864b40e11aa8a4165ce2c5842464e76b346d19e3dd39ab8bd0198906104019085908590610da2565b60405180910390a2505050565b6001600160a01b03831660009081526001602052604090205460ff16156104775760405162461bcd60e51b815260206004820152601a60248201527f50726f6a65637420616c72656164792072656769737465726564000000000000604482015260640161025d565b6001600160a01b038316600081815260016020819052604091829020805460ff19169091179055517fc5269720f30ff538a6b4829011111214de2ce17b1ccce376b5c754133dacd265906104019085908590610da2565b845180158015906104df5750845181145b6105205760405162461bcd60e51b81526020600482015260126024820152714d69736d617463686564206c656e6774687360701b604482015260640161025d565b60005b818110156106015760008451821061054a5760405180602001604052806000815250610565565b84828151811061055c5761055c610dd0565b60200260200101515b905083156105b0576105ab88838151811061058257610582610dd0565b602002602001015188848151811061059c5761059c610dd0565b60200260200101518884610689565b6105ee565b6105ee8883815181106105c5576105c5610dd0565b60200260200101518884815181106105df576105df610dd0565b602002602001015188846106f3565b50806105f981610de6565b915050610523565b50505050505050565b6002546001600160a01b031633146102d05760405163118cdaa760e01b815233600482015260240161025d565b600280546001600160a01b038381166001600160a01b0319831681179093556040519116919082907f8be0079c531659141344cd1fd0a4f28419497f9722a3daafe3b4186f6b6457e090600090a35050565b61069e6001600160a01b03831633868661074e565b6001600160a01b038416336001600160a01b03167f68179208818f375bd941a067e321c35e8cebc048007cd126acd94625989a7b758585856040516106e593929190610e0d565b60405180910390a350505050565b6107076001600160a01b03831685856107b5565b6001600160a01b038416336001600160a01b03167faf67240147df62f17dfebf3c68b2c54103857abfb47bb0d97064b48d490423d68585856040516106e593929190610e0d565b6040516001600160a01b0384811660248301528381166044830152606482018390526102b89186918216906323b872dd906084015b604051602081830303815290604052915060e01b6020820180516001600160e01b0383818316178352505050506107e6565b6040516001600160a01b0383811660248301526044820183905261027191859182169063a9059cbb90606401610783565b60006107fb6001600160a01b03841683610849565b9050805160001415801561082057508080602001905181019061081e9190610e37565b155b1561027157604051635274afe760e01b81526001600160a01b038416600482015260240161025d565b60606108578383600061085e565b9392505050565b6060814710156108835760405163cd78605960e01b815230600482015260240161025d565b600080856001600160a01b0316848660405161089f9190610e59565b60006040518083038185875af1925050503d80600081146108dc576040519150601f19603f3d011682016040523d82523d6000602084013e6108e1565b606091505b50915091506108f18683836108fb565b9695505050505050565b6060826109105761090b82610957565b610857565b815115801561092757506001600160a01b0384163b155b1561095057604051639996b31560e01b81526001600160a01b038516600482015260240161025d565b5080610857565b8051156109675780518082602001fd5b604051630a12f52160e11b815260040160405180910390fd5b80356001600160a01b038116811461099757600080fd5b919050565b634e487b7160e01b600052604160045260246000fd5b604051601f8201601f1916810167ffffffffffffffff811182821017156109db576109db61099c565b604052919050565b600067ffffffffffffffff8311156109fd576109fd61099c565b610a10601f8401601f19166020016109b2565b9050828152838383011115610a2457600080fd5b828260208301376000602084830101529392505050565b600082601f830112610a4c57600080fd5b610857838335602085016109e3565b600080600060608486031215610a7057600080fd5b610a7984610980565b9250602084013567ffffffffffffffff80821115610a9657600080fd5b818601915086601f830112610aaa57600080fd5b610ab9878335602085016109e3565b93506040860135915080821115610acf57600080fd5b50610adc86828701610a3b565b9150509250925092565b600067ffffffffffffffff821115610b0057610b0061099c565b5060051b60200190565b600082601f830112610b1b57600080fd5b81356020610b30610b2b83610ae6565b6109b2565b82815260059290921b84018101918181019086841115610b4f57600080fd5b8286015b84811015610b6a5780358352918301918301610b53565b509695505050505050565b600082601f830112610b8657600080fd5b81356020610b96610b2b83610ae6565b82815260059290921b84018101918181019086841115610bb557600080fd5b8286015b84811015610b6a57803567ffffffffffffffff811115610bd95760008081fd5b610be78986838b0101610a3b565b845250918301918301610bb9565b60008060008060808587031215610c0b57600080fd5b843567ffffffffffffffff80821115610c2357600080fd5b818701915087601f830112610c3757600080fd5b81356020610c47610b2b83610ae6565b82815260059290921b8401810191818101908b841115610c6657600080fd5b948201945b83861015610c8b57610c7c86610980565b82529482019490820190610c6b565b98505088013592505080821115610ca157600080fd5b610cad88838901610b0a565b9450610cbb60408801610980565b93506060870135915080821115610cd157600080fd5b50610cde87828801610b75565b91505092959194509250565b600060208284031215610cfc57600080fd5b61085782610980565b60005b83811015610d20578181015183820152602001610d08565b50506000910152565b60008151808452610d41816020860160208601610d05565b601f01601f19169290920160200192915050565b6020815260006108576020830184610d29565b600181811c90821680610d7c57607f821691505b602082108103610d9c57634e487b7160e01b600052602260045260246000fd5b50919050565b604081526000610db56040830185610d29565b8281036020840152610dc78185610d29565b95945050505050565b634e487b7160e01b600052603260045260246000fd5b600060018201610e0657634e487b7160e01b600052601160045260246000fd5b5060010190565b8381526001600160a01b0383166020820152606060408201819052600090610dc790830184610d29565b600060208284031215610e4957600080fd5b8151801515811461085757600080fd5b60008251610e6b818460208701610d05565b919091019291505056fea2646970667358221220ab47284e5b74d7f1ab8077f3cdc6c80dab155891c413936b690597bb691f756c64736f6c63430008140033",
  "devdoc": {
    "author": "AlloCapital",
    "errors": {
      "AddressEmptyCode(address)": [
        {
          "details": "There's no code at `target` (it is not a contract)."
        }
      ],
      "AddressInsufficientBalance(address)": [
        {
          "details": "The ETH balance of the account is not enough to perform the operation."
        }
      ],
      "FailedInnerCall()": [
        {
          "details": "A call to an address target failed. The target may have reverted."
        }
      ],
      "OwnableInvalidOwner(address)": [
        {
          "details": "The owner is not a valid owner account. (eg. `address(0)`)"
        }
      ],
      "OwnableUnauthorizedAccount(address)": [
        {
          "details": "The caller account is not authorized to perform an operation."
        }
      ],
      "SafeERC20FailedOperation(address)": [
        {
          "details": "An operation with an ERC20 token failed."
        }
      ]
    },
    "kind": "dev",
    "methods": {
      "owner()": {
        "details": "Returns the address of the current owner."
      },
      "renounceOwnership()": {
        "details": "Leaves the contract without owner. It will not be possible to call `onlyOwner` functions. Can only be called by the current owner. NOTE: Renouncing ownership will leave the contract without an owner, thereby disabling any functionality that is only available to the owner."
      },
      "transferOwnership(address)": {
        "details": "Transfers ownership of the contract to a new account (`newOwner`). Can only be called by the current owner."
      }
    },
    "version": 1
  },
  "userdoc": {
    "kind": "user",
    "methods": {},
    "notice": "A simple Strategy contract that allows ERC20 transfers to multiple recipients",
    "version": 1
  },
  "storageLayout": {
    "storage": [
      {
        "astId": 896,
        "contract": "contracts/YourContract.sol:SimpleGrants",
        "label": "strategyName",
        "offset": 0,
        "slot": "0",
        "type": "t_string_storage"
      },
      {
        "astId": 1216,
        "contract": "contracts/YourContract.sol:SimpleGrants",
        "label": "projects",
        "offset": 0,
        "slot": "1",
        "type": "t_mapping(t_address,t_uint8)"
      },
      {
        "astId": 8,
        "contract": "contracts/YourContract.sol:SimpleGrants",
        "label": "_owner",
        "offset": 0,
        "slot": "2",
        "type": "t_address"
      }
    ],
    "types": {
      "t_address": {
        "encoding": "inplace",
        "label": "address",
        "numberOfBytes": "20"
      },
      "t_mapping(t_address,t_uint8)": {
        "encoding": "mapping",
        "key": "t_address",
        "label": "mapping(address => uint8)",
        "numberOfBytes": "32",
        "value": "t_uint8"
      },
      "t_string_storage": {
        "encoding": "bytes",
        "label": "string",
        "numberOfBytes": "32"
      },
      "t_uint8": {
        "encoding": "inplace",
        "label": "uint8",
        "numberOfBytes": "1"
      }
    }
  }
}