{
  "address": "0x407791Fa482f84Ec2BCEF5031D7593D9d21f78cd",
  "abi": [
    {
      "inputs": [
        {
          "internalType": "string",
          "name": "_name",
          "type": "string"
        }
      ],
      "stateMutability": "nonpayable",
      "type": "constructor"
    },
    {
      "anonymous": false,
      "inputs": [
        {
          "indexed": false,
          "internalType": "string",
          "name": "strategyName",
          "type": "string"
        }
      ],
      "name": "Initialize",
      "type": "event"
    },
    {
      "inputs": [],
      "name": "strategyName",
      "outputs": [
        {
          "internalType": "string",
          "name": "",
          "type": "string"
        }
      ],
      "stateMutability": "view",
      "type": "function"
    },
    {
      "stateMutability": "payable",
      "type": "receive"
    }
  ],
  "transactionHash": "0x3d4ead854be8f37ffc2aa89b1b1b7cd21cb3726f1edecf1095c97a5b8ab17031",
  "args": [
    "StrategyName"
  ],
  "numDeployments": 1,
  "solcInputHash": "95e9018c51e8c280d07714c61bce0e5f",
  "bytecode": "0x608060405234801561001057600080fd5b506040516104e03803806104e083398101604081905261002f91610090565b600061003b82826101e2565b507f65b338e03a4156bd65a273672217a9d2d0e0594ee4f689f7a4be8ab5e91fd301600060405161006c91906102a1565b60405180910390a15061032c565b634e487b7160e01b600052604160045260246000fd5b600060208083850312156100a357600080fd5b82516001600160401b03808211156100ba57600080fd5b818501915085601f8301126100ce57600080fd5b8151818111156100e0576100e061007a565b604051601f8201601f19908116603f011681019083821181831017156101085761010861007a565b81604052828152888684870101111561012057600080fd5b600093505b828410156101425784840186015181850187015292850192610125565b600086848301015280965050505050505092915050565b600181811c9082168061016d57607f821691505b60208210810361018d57634e487b7160e01b600052602260045260246000fd5b50919050565b601f8211156101dd57600081815260208120601f850160051c810160208610156101ba5750805b601f850160051c820191505b818110156101d9578281556001016101c6565b5050505b505050565b81516001600160401b038111156101fb576101fb61007a565b61020f816102098454610159565b84610193565b602080601f831160018114610244576000841561022c5750858301515b600019600386901b1c1916600185901b1785556101d9565b600085815260208120601f198616915b8281101561027357888601518255948401946001909101908401610254565b50858210156102915787850151600019600388901b60f8161c191681555b5050505050600190811b01905550565b60006020808352600084546102b581610159565b808487015260406001808416600081146102d657600181146102f05761031e565b60ff1985168984015283151560051b89018301955061031e565b896000528660002060005b858110156103165781548b82018601529083019088016102fb565b8a0184019650505b509398975050505050505050565b6101a58061033b6000396000f3fe6080604052600436106100225760003560e01c8063e173ad251461002e57600080fd5b3661002957005b600080fd5b34801561003a57600080fd5b50610043610059565b60405161005091906100e7565b60405180910390f35b6000805461006690610135565b80601f016020809104026020016040519081016040528092919081815260200182805461009290610135565b80156100df5780601f106100b4576101008083540402835291602001916100df565b820191906000526020600020905b8154815290600101906020018083116100c257829003601f168201915b505050505081565b600060208083528351808285015260005b81811015610114578581018301518582016040015282016100f8565b506000604082860101526040601f19601f8301168501019250505092915050565b600181811c9082168061014957607f821691505b60208210810361016957634e487b7160e01b600052602260045260246000fd5b5091905056fea26469706673582212206500be2aed82486cbd1d69610b6c3c80af4bf74476d6f6e3fa6360206e27a6dc64736f6c63430008140033",
  "devdoc": {
    "kind": "dev",
    "methods": {},
    "version": 1
  },
  "userdoc": {
    "kind": "user",
    "methods": {},
    "version": 1
  },
  "storageLayout": {
    "storage": [
      {
        "astId": 1584,
        "contract": "contracts/base/Strategy.sol:Strategy",
        "label": "strategyName",
        "offset": 0,
        "slot": "0",
        "type": "t_string_storage"
      }
    ],
    "types": {
      "t_string_storage": {
        "encoding": "bytes",
        "label": "string",
        "numberOfBytes": "32"
      }
    }
  }
}